:100000000C947E040C949B040C949B040C949B0411
:100010000C949B040C949B040C949B040C949B04E4
:100020000C949B040C949B040C949B040C949B04D4
:100030000C949B040C949B040C949B040C949B04C4
:100040000C949B040C949B040C949B040C949B04B4
:100050000C949B040C949B040C949B040C949B04A4
:100060000C949B040C949B04BF0003020404020440
:10007000050B0DFFFE08FE08FE015502BF087620A5
:100080000500E604210681E3C4252207233B45A29F
:1000900004231076A2559225D12025C92025591276
:1000A000012410A59E55B654946C4BA244A96C1122
:1000B00000251188628ED492293910E740A225517B
:1000C0004901260D86238E16B56951A2259129274F
:1000D0000621BA8400280BA31A551225515B9405FA
:1000E000290CA31B451665514B9444002A0733364F
:1000F00045D2012B0A55A655180D5218012C07326E
:10010000DA4CA2002D06132EC5002E0611E3440082
:100110002F0A83E254256A892200300A85A2CD92F3
:10012000F9962C00310782A3CDD207320C85A2CDDF
:10013000928525290B0701330C85A2CD9285911A52
:100140006AC902340E85A25D262551524A062D4CFD
:1001500000350C85A2CD9084E11A6AC902360C855F
:10016000A2CD92894392D99205370B85A2C520660C
:10017000C52CAC01380C85A2CD9269C992D99205E3
:10018000390C85A2CD92D99221D492053A0661E329
:1001900044183B0982DA4C0E250A003C0753A75548
:1001A000522B3D08346AC5100E013E0853A7455630
:1001B00029013F0C84A38D1265512D0722004016A2
:1001C0009ADEDE20A651A4245249C92225AA448AD7
:1001D00096638306410E87E25D9C26619295062513
:1001E0005503420D85E3C59064DAA064B64101432E
:1001F0000C8623CE90846AC7644800440D8623C6CB
:10020000106549E82D192200450A85E3C5311CC651
:10021000E220460A85A3C5311C92B011470C862303
:10022000CE90846A6D149341480A862346681C0662
:10023000D131490681E3C4414A0984625D6F52A20B
:10024000004B0D85E3452625A5A9122599164C08D6
:1002500084A345D6B7214D10876346BA0DD95251B4
:100260002A52244552014E0F862386B629911249FF
:100270008994689B004F0B8623CE90843E264302D0
:10028000500C85E3C59064DAA0848D005112971F4D
:10029000CE1085499884499844494D1A7420520CCF
:1002A00085E3C59064DAA0646E01530C85E3CD92BA
:1002B000A9ABA6250B0054098562C520857D025592
:1002C0000A862346E8C7644800560F87E245AA26F7
:1002D00059944559254CD20C571089624696699518
:1002E000A82F6DC52CCC2200580D85E345A625B559
:1002F0004A94D4B400590E87E2459A645156099342
:1003000034AE015A0B85E3C52066C5AC38085B08DE
:10031000A2DBC4D22F025C0A83E24494456D5100F3
:100320005D08A2DA84D22F035E0A55AE5598255196
:10033000520B5F06169AC501600622FE4414610C3A
:100340006562C51A2D5112454A00620C85A24558B6
:100350003169DAA42800630A64628D1269A5440138
:10036000640A85A265C5B4991425650B64628D1273
:100370000D5B942800660A842295124D5927006768
:100380000C859A8D6933294A982C00680A85A24504
:100390005831696E01690781A244320C6A09A29939
:1003A0004C96F4A2006B0C846245565212292949DE
:1003B000016C0681A2C4416D0E6722C6A24491144D
:1003C00049911449056E0965A24562D2DC026F0AA3
:1003D00065A2CD92B9250B00700C859A4562D2B406
:1003E0004951C210710A859A8D6933294A58720998
:1003F000632245B2444D00730B64628D1225A294B2
:100400002800740A83224D942C519300750864626D
:1004100045E42919760C65A245A625A5240B2300E1
:10042000770E672246144995A6A496844904780A53
:1004300065A24596D42A352D790E85594D944449A7
:1004400029C9B430D2007A0A6462C590456D430070
:100450007B0AA3DA541255B2A82D7C07A1DBC44352
:10046000007D0BA3DA4416D592A825027E0726EE5E
:100470008D6401A00500E604A10781DB44320CA2D3
:100480000E859F5DB45494288992CA9401A30C856B
:10049000A29554C9B6B0A42800A40C64664594285B
:1004A0009194285100A50D85A245664B2A83140D11
:1004B0005204A608A1DBC4100D01A70FA59ACD9286
:1004C0008D4B3444C9B8250B00A80613FE4412A96D
:1004D0000E7763D65689142593945A3601AA085389
:1004E0002EC5A46403AB0A55A255D25B922501AC7C
:1004F0000735EBC52016AD06132EC500AE0D77638C
:10050000D656491693D22D9B00AF0613FEC400B0F9
:100510000944328D12498902B10C75A255180D5249
:1005200098038300B20743F2CC5219B30843F2C4D4
:10053000922D00B40622FE8C02B50A845A45E46965
:10054000D83200B615A69ACD3028C9922C919225A2
:100550005992255992250900B70612EE8400B80673
:1005600022DACC00B90642F2CC52BA09532EC59019
:100570000CD900BB0B55A245922559D21300BC13D0
:1005800089624E966961944639908591160D51980D
:1005900000BD1088624E1669A5308A232D2965A5F5
:1005A00001BE138962C60E64699449391285919817
:1005B0000C519800BF0C849B550E64512D4A1400B9
:1005C000C010B7E2550EE470350993AC3428A91A6F
:1005D000C110B7E2659AC3D5244CB2D2A0A46A0078
:1005E000C211B7E25D9AE4689C2661929506255592
:1005F00003C312B7E25D9225391AA7499864A54151
:1006000049D500C410A7E25592A3719A8449561A9D
:1006100094540DC510B7E25D9AA471350993AC34BA
:1006200028A91AC61289A2DEB0C9499C0C4A940EA8
:100630006116668300C70DA61BCE90846AC7640846
:100640004309C80DB5E34D9A03C770188B8300C9E1
:100650000CB5E35D1D3886C3581C04CA0DB5E355BF
:1006600096C4C3180E637110CB0CA5E34D7918C363
:10067000612C0E02CC09B2E2449425FD00CD09B2F2
:10068000E38C96F40B00CE09B3E24C63D42F00CF79
:1006900009A3E2441246FD02D0118722CE9095C2F2
:1006A000414AC2244CB2688800D112B623561225A2
:1006B00039A26D4AA444522225DA26D20EB6235618
:1006C0009C434312FA980C0900D30DB623661D1AF9
:1006D00092D0C7644800D40EB6235698E4D09084D4
:1006E0003E264302D50FB623561225393424A18F56
:1006F000C99000D60EA6234E94234312FA980C09F3
:1007000000D70A55A64596D42AB500D812A61F6E62
:100710003224D99448891229D1960C490AD90CB6A9
:1007200023569C23A11F932101DA0CB623661D09D1
:10073000FD980C0900DB0DB6235698E448E8C76421
:100740004800DC0CA6234E9403A11F932101DD1069
:10075000B7E2659A6369924559254CD2B806DE0D19
:1007600085E345180E49A60D4A1802DF0B84628DF9
:1007700012594A2E0900E00E95624D9A036BB4445B
:1007800049142901E10E95625596236BB44449142E
:100790002901E20E95625596C46BB44449142901AF
:1007A000E30D95624D77608D9628892225E40C85AE
:1007B000624D798D9628892225E50F9562559664BC
:1007C000D11A2D5112454A00E60E6722C62246C9AB
:1007D00030445954B100E70C845A8D1269A5448BFA
:1007E0001400E80C94624D182BD1B0458902E90C35
:1007F0009462551D50A2618B1205EA0D94624D94CE
:10080000C44A346C51A200EB0C846245122BD1B067
:10081000458902EC0892A14494253DED0892A28CF2
:1008200096F402EE0993A14C63D40B00EF0983A167
:10083000441246BD00F00D95A24D3848D1A0B9250F
:100840000B00F10A94624DA2A44BE429F20C95A28C
:100850004D9A234BE6962C00F30B95A25D1D593261
:10086000B76401F40D95A25596E4C092B9250B002A
:10087000F50C95A255D20E2C995BB200F60B85A211
:100880004D1D5832B76401F70A55A6550E0C3A10A3
:1008900001F80D67A1D552929292544B9209F90A30
:1008A00094624D98469E9201FA0A94625D94469E27
:1008B0009201FB0A94624D94A491A764FC0A84629D
:1008C0004592469E9201FD10B55965960351122539
:1008D000A524D3C24803FE0DA59A45583169DAA470
:1008E000286108FF10A5594D1D88922829259916C1
:1008F000461A0000000004FFFF00000011241FBE84
:10090000CFEFD8E0DEBFCDBF11E0A0E0B1E0E6EF71
:10091000FDE102C005900D92A437B107D9F725E09B
:10092000A4E7B1E001C01D92AA3DB207E1F70E9421
:100930001F0E0C94F90E0C94000021E83EE048E2F2
:100940005BE060E071E084E795E00E94270584E7C2
:1009500095E00E94090D60E084E795E00E94140D87
:1009600008950E949D040895AF92BF92CF92DF92A6
:10097000EF92FF920F931F93CF93DF937C01DC01E3
:100980009596BC9095979696DC919697ED91FC91F3
:10099000A188CD2FC12CD12CD701ED91FC911197BD
:1009A000208993960D911C919497422F50E0440F0B
:1009B000551F440F551F440F551F4C9DC0014D9DA1
:1009C000900D5C9D900D1124080F191F4C2F60E0B5
:1009D000C7010E94DB0CCF5F8C2F8D1B8B1528F479
:1009E000BFEFCB1ADB0ACA15B8F2DF91CF911F9186
:1009F0000F91FF90EF90DF90CF90BF90AF90089550
:100A0000FC01A081B18150969C9145A1949FA001C9
:100A10001124440F551F440F551F440F551F60E00C
:100A200070E083A194A10E94F20E0895CF93DF930A
:100A3000EC010E94B404CE010E941F0DDF91CF9102
:100A4000089528E0FC01208384E791E00895CF9287
:100A5000DF92EF92FF920F931F93CF93DF931F923A
:100A6000CDB7DEB77C016B0189019A014BE55CE0F3
:100A700063EB7DE00E94F90DCE0101960E942105F5
:100A800086012FEC39E04981BC01C7010E94C60AEA
:100A90000F90DF91CF911F910F91FF90EF90DF901A
:100AA000CF900895FC01E60FF11D849190E0982FFE
:100AB00088273196E4918E0F911D0895213031F0F1
:100AC00018F0223029F006C0840F0895860F08958B
:100AD000841B0895861B0895213031F018F02230D0
:100AE00029F006C0860F0895841B0895861B08957B
:100AF000840F089580E008950F931F93CF93DF93A1
:100B0000EC018B01FB01849188833196E491E983A8
:100B1000FB013296E491EA83FB013396E491EB8387
:100B2000FB013496E491EC83FB013596E491ED836F
:100B3000FB013696E491EE83FB013796E491EF8357
:100B4000FB013896E491E887FB013996E491E98747
:100B5000FB013A96E491EA87FB013B96E491EB872F
:100B6000FB013C96E491EC87FB013D96E491ED8717
:100B7000FB013E96E491EE87FB013F96E491EF87FF
:100B8000FB017096E491E88B61E1C8010E94520577
:100B90009A8B898B63E1C8010E9452059C8B8B8BD9
:100BA00065E1C8010E9452059E8B8D8BDF91CF912C
:100BB0001F910F910895DC0118969C911897ED9163
:100BC000FC911197249130E0092E02C035952795AC
:100BD0000A94E2F7892F860F883010F4E22F0FC0B5
:100BE00031961196FC93EE93E491F0E038E0391BD6
:100BF00002C0EE0FFF1F3A95E2F7E22B88501896DD
:100C00008C9381E090E002C0880F991F6A95E2F70B
:100C100081508E2308950F931F93CF93DF93EC01A0
:100C20008C01065C1F4F7BAF6AAFFC01EE5BFF4F90
:100C3000108239966081C8010E94DB05FE01E05CEC
:100C4000FF4F80833C966081C8010E94DB05FE0156
:100C5000EF5BFF4F8083B3968081B0978083CB5B3F
:100C6000DF4F91E0811190E09883DF91CF911F9148
:100C70000F910895CF93C62F0E94DB05C15021E04C
:100C800030E002C0220F331FCA95E2F7821BCF91DA
:100C900008952F923F924F925F926F927F928F9220
:100CA0009F92AF92BF92CF92DF92EF92FF920F93FB
:100CB0001F93CF93DF93CDB7DEB728970FB6F89485
:100CC000DEBF0FBECDBF7C016887342EFC0176AC41
:100CD00017AD5C01F0E4AF0EB11C6C0186E4C80EE8
:100CE000D11C470193E4890E911CF701EC59FF4F89
:100CF000FA83E983C7018B5B9F4F9E838D83B097F7
:100D0000FC83EB83F501F081F719FF835884F51517
:100D100008F45F2EF70165ACF6010081212E202F2B
:100D2000412F672DF70184AD0E946C05482E202FBE
:100D3000412F672D862D0E945E05332069F0EB81DF
:100D4000FC819081E981FA819083252D482F642DC3
:100D5000C7010E94310910C0F401908191110CC0AB
:100D6000ED81FE819081E981FA819083252D482FC4
:100D7000642DC7010E943109F8858F81F81728F08A
:100D8000F81BF8871F5F712CBDCF8885870DF70191
:100D900086AF27AE28960FB6F894DEBF0FBECDBF44
:100DA000DF91CF911F910F91FF90EF90DF90CF9047
:100DB000BF90AF909F908F907F906F905F904F907B
:100DC0003F902F9008958F929F92AF92BF92CF92B3
:100DD000DF92EF92FF920F931F93CF93DF93EC017B
:100DE0007C018AE3E80EF11CCE010E940B06FE0195
:100DF000EF5BFF4F90803C966081C7010E943A06EE
:100E0000B82EFE01E25BFF4F6081C7010E943A06E7
:100E1000182FFE01E15BFF4F6081C7010E943A0677
:100E2000882EFE01E05CFF4FD0801D140CF077C0CF
:100E300036960081190D1195202F412F6B2D8CAD09
:100E40000E946C05C82E8CAF202F412F6B2D8DADCD
:100E50000E945E058DAF013059F028F0023091F00C
:100E60000330D9F023C02D2D2C0D092D080F20C0E3
:100E70009C2D991921E02C0D0D2D080FCC24C39425
:100E8000C90E16C091E0392F3D1921E02C0D99199A
:100E900001E0080F890FC30E0BC0292D2C0D982FD0
:100EA0009D1901E0080F81E0890F02C0082F2C2D49
:100EB000482F6C2DCE010E94B409882381F11EAE0B
:100EC0001FAE5E01E9E4AE0EB11C6E01FAE4CF0E76
:100ED000D11CF5016081C7010E94DB05082FF601D6
:100EE0006081C7010E94DB05182F40E0602FCE0112
:100EF0000E94490641E0612FCE010E94490661E04F
:100F0000C7010E94DB058111F0CF8FAD89150CF36D
:100F1000FE01EC59FF4FCC5BDF4F88818083882D29
:100F2000DF91CF911F910F91FF90EF90DF90CF90C5
:100F3000BF90AF909F908F900895EF92FF920F9384
:100F40001F93CF93DF93FC01C6A9D7A967966F3F84
:100F5000710511F008F036C06136710538F0E65AB7
:100F6000FF4F80819181C80FD91F0AC0613471057C
:100F700038F0FC01E85AFF4F80819181C80FD91FDA
:100F8000CE010196FC012491222309F45AC0FE01EE
:100F9000249130E06217730751F406C0FE012491DA
:100FA00030E06217730719F4CE01029652C0FC01BB
:100FB0008491C80FD11DCE010196FC01249121110D
:100FC000EDCF42C08B01FC01E45AFF4F808191813B
:100FD000C80FD91F7E0160E0C7010E945205C80FEB
:100FE000D91F62E0C7010E945205F4E0EF0EF11C28
:100FF0008017910780F3FE01849190E0982F882755
:101000003196E4918E2B009711F10817190739F4E6
:1010100003C00817190719F4CE0103961AC0FE0180
:101020003296E491CE0FD11DFE01849190E0982F6D
:1010300088273196E4918E2B009759F780E090E055
:1010400008C080E090E005C080E090E002C080E051
:1010500090E0DF91CF911F910F91FF90EF90089555
:10106000EF92FF920F931F93CF93DF93EC01062F24
:10107000142F7901FC01EA5BFF4F8081813061F020
:1010800028F0823079F0833099F017C0E8ADF9ADDF
:10109000CE010995180F11C0E8ADF9ADCE01099543
:1010A000081B0BC0E8ADF9ADCE010995181B05C0B2
:1010B000E8ADF9ADCE010995080F0CAF1DAFB70132
:1010C000CE010E949D07009729F0BC01CE010E942D
:1010D000E30601C080E0DF91CF911F910F91FF9057
:1010E000EF900895BF92CF92DF92EF92FF920F930D
:1010F0001F93CF93DF93EC01B62EC42EE22EF32E76
:101100000E94000B0E2D1F2DD12C7E0126E4E20E35
:10111000F11CF80161918F01EA81FB81CE010995F3
:101120008F3FFFEF9F07E9F08E3F2FEF920789F384
:101130009C014C2D6B2DCE010E943008F70190814F
:10114000913041F028F0923039F0933039F007C0F7
:10115000B80E05C0C80E03C0B81A01C0C81AD80E10
:10116000D8CF8D2DDF91CF911F910F91FF90EF90F0
:10117000DF90CF90BF900895E3EFFAE0DC01139683
:10118000FC93EE9312970E9472080895FC0126A921
:1011900037A9232BE9F1EC5AFF4F20813C9620839D
:1011A0003B9740813C96408332973081332381F1D5
:1011B000313079F439973081231714F43A9630831B
:1011C000FC01E95AFF4F2081241714F53A96208339
:1011D0000895FC01EF5AFF4FE081DC01AD5ABF4F8B
:1011E0005C91022E000C330B652F052E000C770B43
:1011F0006E0F711DE7FD7A95261737071CF41D96B3
:10120000E50FEC93541724F4FC01EF59FF4F508382
:1012100008952AE735E0FC0131AF20AF0895CF9360
:10122000DF93FC0126A937A92617370751F0EC01F7
:1012300077AB66AB895B9F4F0E947C05CE010E9415
:10124000C608DF91CF9108950F93DC0199963C91E8
:101250009997431B5F96ED91FC91909709950F919B
:1012600008950F93FC01E25AFF4F3081332309F4B4
:1012700065C0222309F462C0223058F0023019F40C
:101280006F5F621B0AC0033021F44F5F421B51E0C5
:101290002DC0502F517000FD29C0DC01D0963C912B
:1012A000D097431708F44AC0D1963C91D197431781
:1012B00008F044C09F963C919F979E965C91260FA4
:1012C000261730F4631718F42FEF230F03C0652F90
:1012D0006317A0F5521790F5651708F4652F2317CB
:1012E00008F4322F232F261B50E01EC0FC0136A528
:1012F000631720F137A5631708F531A970A9240FEA
:10130000241730F4431718F42FEF230F03C0472F8F
:101310004317A0F4721790F4471708F4472F2317C8
:1013200008F4322F232F241BDC019196ED91FC91C0
:1013300092970480F581E02D052F09950F9108956E
:10134000461738F4821760F081E0241760F080E0DF
:101350000895821738F481E0241728F080E008957A
:1013600081E0089580E00895FF920F931F93CF933B
:10137000DF93EC01162FF22E202F69A988A90E9475
:10138000A009882331F02F2D412F6FA58EA50E9433
:10139000A009DF91CF911F910F91FF900895EF92D7
:1013A000FF920F93CF93DF937C01342F377081E04E
:1013B00090E0032E02C0880F991F0A94E2F7C82F0D
:1013C000F701EC59FF4F5081523020F4513021F099
:1013D000782F04C070E002C0782FC0E050E0487F52
:1013E000D70193968D919C919497ED91FC91D08922
:1013F000D49FF001D59FF00D1124E60FF11DE80FE9
:10140000F91F011107C08081872B8C278193215000
:10141000D1F722C0A7014C595F4F9081972B9C2791
:1014200090833F5F3770215031110EC0D7019796DE
:101430008C91E80FF11DDA018C91823040F48130FB
:1014400041F0C1E071E006C0770FCC0F03C0C1E0EE
:1014500001C071E02111E1CFDF91CF910F91FF9099
:10146000EF900895FC01A081B18185A1982F990F7B
:10147000990F990F90A750969C915097903208F031
:101480009FE1990F990F990F97A346A1942F990F58
:10149000990F990F91A751965C915197242F30E0A5
:1014A000280F311D652F70E06217730714F4852F24
:1014B000841B92A7880F880F880F890F83A780EF5E
:1014C00084A754968D919C915597813F910508F47E
:1014D00084A756968C9185A708950E94320A089594
:1014E0000F93CF93DF93EC010DA92BA94CA96AA907
:1014F0000E94B409811104C0C25ADF4F188219C07A
:1015000081E0FE01E25AFF4F80838AA99EA59817C9
:1015100008F48EA78BA99FA5891708F48FA78CA91B
:1015200098A9981708F488AB8DA999A9891708F488
:1015300089ABDF91CF910F910895FC0116A684A588
:1015400087A782A580AB83A581ABCF010E94700ADB
:1015500008950F930E9424090F910895DC01D296FB
:101560001C92D297D4961C92D4978FEFD3968C93DB
:10157000D397D5968C93D5979196ED91FC919297B0
:101580000280F381E02DCD01099508950F931F93FB
:10159000CF93DF93EC011FAA1EAA38A32F8F7CA341
:1015A0006BA34DA31EA2FC01ED5BFF4F1082B09612
:1015B0001082319681E08083319680831AA309A33B
:1015C000D801ED91FC91CE010995CE010E94AE0AA1
:1015D000CE010E940909CA5BDF4F1882DF91CF91CB
:1015E0001F910F910895662329F06A3031F0862FFC
:1015F00090E008958FEF9FEF08958FEF9FEF08958C
:10160000FC01118E0895462FDC011896ED91FC9196
:10161000199720E030E060E2099508959A01DC0115
:101620001896ED91FC911997462F67E10995089559
:10163000CF93DF931F92CDB7DEB76983AE014F5FC3
:101640005F4F61E00E940E0B0F90DF91CF910895E4
:101650009F92AF92BF92CF92DF92EF92FF920F9341
:101660001F93CF93DF93EC017901A881B981683191
:1016700009F467C030F4643109F44FC06731C9F12F
:1016800082C0693109F46EC0603209F455C07BC074
:10169000F70101917F0118E0002334F4492D61E442
:1016A000CE010E94D60D05C040E061E4CE010E944B
:1016B000D60D000F4A2D60E4CE010E94D60DE881C0
:1016C000F98146816CE2CE010E94D60D4B2D60E47B
:1016D000CE010E94D60DE881F98147816CE2CE01EE
:1016E0000E94D60D1150C1F6CE14DF0489F681E0B8
:1016F0004DC0442309F449C01C968C918170B82ECA
:101700004150C42ED12CFFEFCF1ADF0AC20ED31ED8
:1017100099249394A92CA81ABBCF11964C9169E4F3
:101720000E94D60DE881F9814485417060E4CE01C4
:101730000E94D60D81E02AC06AE40E94D60D81E0A5
:1017400025C04C9169E40E94D60DA881B981EA8533
:10175000FB8520E030E012964C916CE2CE010995B9
:1017600081E014C0EA85FB8520E030E013964C91BF
:101770006CE20995E881F981418169E4CE010E941A
:10178000D60D81E003C080E001C081E0DF91CF9100
:101790001F910F91FF90EF90DF90CF90BF90AF908F
:1017A0009F900895462FDC011696ED91FC911797B6
:1017B00020E030E065E109950895462FDC0116969A
:1017C000ED91FC91179720E030E066E109950895CE
:1017D0009A01DC011696ED91FC911797462F67E16F
:1017E00009950895DC011696ED91FC91179720E07C
:1017F00030E040E068E109950895DC011696ED912E
:10180000FC91179720E030E040E069E109950895E8
:10181000EF92FF920F931F93CF93DF931F92CDB759
:10182000DEB77C018B01D8016C916731C1F018F4EF
:10183000653130F438C06A31F8F06E3F51F133C091
:10184000F80141814983D7011696ED91FC911797D4
:1018500020E030E0C70109950E5F1F4FE4CFF8018B
:1018600081818983AE014F5F5F4F61E0C7010E94B4
:10187000E80B0E5F1F4FD7CF0F5F1F4FD701169694
:10188000ED91FC91179720E030E040E0C701099509
:10189000CACFF8014181498369E2C7010E94D60D90
:1018A0000E5F1F4FC0CF0F90DF91CF911F910F910F
:1018B000FF90EF900895EF92FF920F931F93CF93B5
:1018C000DF938C01C62FD42F79016631A1F028F463
:1018D0006431E9F0653131F025C06731A9F06A3132
:1018E00008F515C060E00E94030B6D2FC8010E942F
:1018F000180B81E018C060E00E94030B6D2FC80137
:101900000E94180B81E00FC061E00E94030BD80118
:101910001896ED91FC91199797014D2F6C2FC801E6
:10192000099501C080E0DF91CF911F910F91FF9049
:10193000EF900895FC0171836083FB012289FC0113
:10194000248B0895CF93DF93EC01EA85FB8520E09B
:1019500030E040E068E20995EE81FF8120E030E070
:1019600040E064E1CE01099541E06BE4CE010E94C4
:10197000D60DE881F981448169E2CE010E94D60D3D
:1019800040E06BE4CE010E94D60DE881F9814481EC
:1019900069E2CE010E94D60D41E06BE4CE010E94C7
:1019A000D60DE881F981458169E2CE010E94D60D0C
:1019B000DF91CF9108950F931F93CF93DF9300D0C2
:1019C00000D01F92CDB7DEB76C834D832B831A8373
:1019D0000983DC011496ED91FC9115979E012F5F10
:1019E0003F4F41E06FE009950F900F900F900F90DF
:1019F0000F90DF91CF911F910F910895DC01149604
:101A0000ED91FC91159720E030E040E069E0099508
:101A10000895DC011496ED91FC91159720E030E0DB
:101A200040E06AE009950895462FDC011496ED9197
:101A3000FC91159720E030E06BE009950895DC01FA
:101A40001496ED91FC91159720E030E040E060E1C4
:101A500009950895EF92FF920F931F93CF93DF9311
:101A60008C01C42F79016D30B9F018F46B3031F06E
:101A700072C06E3069F16F30D1F16DC0411106C096
:101A800061E371E00E94080C81E066C06CE271E0E5
:101A90000E94080C81E060C041110DC065E271E058
:101AA0000E94080CD801ED91FC91119782895496FF
:101AB0008C9381E051C06EE171E00E94080CD80166
:101AC000ED91FC911197838954968C9381E044C0E9
:101AD0000E94F20B61E8C8010E94D20B6C2FC80172
:101AE0000E94DD0BC8010E94FD0B81E035C00E9401
:101AF000F20BF701D381DD0FDD0FDD0FD801549616
:101B00008C91D80F60E4C8010E94D20B6D2F6295B2
:101B10006F706061C8010E94D20B6D2F6F70C80199
:101B20000E94DD0BF7016481606BC8010E94DD0B30
:101B3000D7014D915C91119712966C91660F660FCB
:101B4000660FC8010E94E80BC15091F7C8010E94BE
:101B5000FD0B81E001C080E0DF91CF911F910F91DB
:101B6000FF90EF9008950F931F93CF938C01C62F92
:101B70000E942A0D811115C0C93061F0CA3091F45C
:101B8000C8010E94A20C66E371E0C8010E94080C23
:101B900081E008C066E071E0C8010E949A0C81E013
:101BA00001C081E0CF911F910F910895DC011A9639
:101BB000ED91FC911B9720E030E00995089580E0BD
:101BC0000895FC01118210828FED9DE0958384833E
:101BD000978386839187808793878287158A108E63
:101BE000118E14861586168617868FEF868B838F47
:101BF0000895AF92BF92CF92DF92EF92FF920F9330
:101C00001F93CF93DF93EC015B016A0179010E947E
:101C1000E10DBD82AC82DF82CE82F986E8861B8729
:101C20000A87CE010E94FE0CDF91CF911F910F9188
:101C3000FF90EF90DF90CF90BF90AF9008950E94FB
:101C4000B10484E795E00E94000568E670E084E74F
:101C500095E00E940F092BE631E04EE168E284E74F
:101C600095E00E94BC0884E795E00E941605E9CF44
:101C70006A3251F018F4693269F03FC06B3281F07A
:101C80006C32D9F581E0089550E014161506DCF0A9
:101C900081E0089550E0141615060CF181E00895D6
:101CA000242F30E0A4E6B0E00E94E30E28EF30E0FD
:101CB00040E050E00E94C10E233208F5822F0197C8
:101CC000F1F781E0089580E090E025E32A95F1F7AF
:101CD0000000019684179507C1F781E0089580E020
:101CE00090E0EFE9FFE03197F1F700C000000196C6
:101CF00084179507B1F781E0089580E0089581E0A9
:101D00000895CF93DF936134C9F028F4683251F01D
:101D1000603471F02BC06A34E9F06B3409F1693436
:101D200029F512C0259A239A229A219A209A25C031
:101D3000442311F02D9A21C02D981FC0442311F087
:101D40002B9A1BC02B9819C0442311F02A9A15C056
:101D50002A9813C0442311F0299A0FC029980DC066
:101D6000442311F0289A09C0289807C0EC010E946A
:101D7000380E811102C081E08A8F81E0DF91CF911E
:101D80000895A1E21A2EAA1BBB1BFD010DC0AA1FBC
:101D9000BB1FEE1FFF1FA217B307E407F50720F0D4
:101DA000A21BB30BE40BF50B661F771F881F991F4F
:101DB0001A9469F760957095809590959B01AC0198
:101DC000BD01CF010895A29FB001B39FC001A39FA1
:101DD000700D811D1124911DB29F700D811D112464
:101DE000911D0895DC0101C06D9341505040E0F712
:061DF0000895F894FFCFF6
:101DF6006D0A9D0AA90A0001140A646432320012AF
:101E06007A0000042896100800008000400018158B
:101E1600A015C019FF1815A115C819FF1815AE1978
:101E2600FF1815AF19FF1815AE15D5168015A8168B
:101E36003F15D316001540158D16141520160015DE
:101E4600A115C815DA1612158116CF15D916F11572
:101E5600DB1640152E15A415A619FF6F4C6F6720CB
:041E6600475053008E
:00000001FF
